:1001F7001202AC7D587C007F011201CE7F011201F3
:10020700758F26EFFB7A00750C037D017F011202C3
:030217007980FEED
:09030100D2A1D2A0C2A0C2A12227
:07031300C2A0D2A1D2A0227A
:0201A500AD07A4
:1001A700E4FB7E007480A803088006CEA2E713CE86
:1001B70013D8F8FFEDF582EF558224FF92A0D2A164
:0601C700C2A10BBB08DC25
:0101CD00220F
:10023D00E4FFD2A0FED2A130A00DA80674800880E4
:0D024D0002C313D8FC4207C2A10EBE08E890
:01025A002281
:09030A00A20092A0D2A1C2A1221E
:07031A00D2A0D2A1C2A12272
:1002C000AE071FEE600B007E027DC7DDFEDEFC8008
:0102D000EF3E
:0102D100220A
:1001CE008F088C098D0A1203017FA01201A512035C
:1001DE001AAF081201A512031AAF0A1201A51203D3
:0901EE001A1203137F050202C07E
:020175008F08F1
:100177001203017FA01201A512031AAF081201A5ED
:1001870012031A1203017FA11201A512031A120208
:0D0197003D8F09D20012030A120313AF09B5
:0101A4002238
:0602D200C2A58F80D2A737
:0802D8007F027EC7DEFEDFFCA1
:0102E00022FB
:0A02ED00C2A61202D2C2A70202D874
:10025B00CFCDCFCECCCE1200427C007D0A12004215
:04026B00ED2430FF4F
:0A026F00D2A61202D2C2A70202D8E2
:10029600AE07BE0104ED148006BE0209ED243F44FC
:0602A60080FF1202ED22B0
:1002AC007F381202ED7F0C1202ED7F061202ED7FF9
:0402BC00010202ED4C
:0A02F700AC03120296AF0402026F7E
:06021A008B1D8A1E891FE6
:10022000120296E4FDAB1DAA1EA91F8D82758300E4
:0C023000120003FF600612026F0D80E94F
:01023C00229F
:0C0142007F0AEA24FFFDE434FFFC7E008D
:08014E008E0D8F0E8C0F8D1039
:100156007F017E00E4FBEBC39510E50F6480F87425
:0E0166008098500AAC0DAD0E1200300B80E8F0
:010174002268
:040279008A0A8B0B57
:10027D00120296AA0CEAD39400400D120142AC0A68
:08028D00AD0B12025B1A80EDBB
:010295002246
:10009700120296C3EA64809480400B7F2B12026F92
:1000A7008A168B17800E7F2D12026FC3E49BF517FC
:1000B700E49AF516AA15EAD39400400D120142AC52
:0900C70016AD1712025B1A80ED60
:0100D000220D
:0400D1008A1A8B1BE1
:1000D500120296AA1CEAD3940040297F101201440B
:1000E500AC1AAD1BCFCDCFCECCCE120042EF540F04
:1000F500FEC3940AEE5004243080022437FF120216
:040105006F1A80D11C
:0101090022D3
:04010A008A238B2495
:10010E00120296AA25EAD394004028EA24FFFDE4C1
:10011E0034FFFC7F027E0012014EAC23AD24CFCD06
:10012E00CFCECCCE120042EF54012430FF12026F1C
:03013E001A80D252
:01014100229B
:050321007F010202ED66
:030000000202E118
:0C02E100787FE4F6D8FD7581260201F755
:10000300BB010CE58229F582E5833AF583E02250B2
:1000130006E92582F8E622BBFE06E92582F8E222FC
:0D002300E58229F582E5833AF583E4932216
:10003000EF8DF0A4A8F0CF8CF0A428CE8DF0A42EE4
:02004000FE229E
:10004200BC000BBE0029EF8DF084FFADF022E4CCA2
:10005200F875F008EF2FFFEE33FEEC33FCEE9DEC6B
:10006200984005FCEE9DFE0FD5F0E9E4CEFD22EDB1
:10007200F8F5F0EE8420D21CFEADF075F008EF2FFB
:10008200FFED33FD4007985006D5F0F222C398FDEC
:050092000FD5F0EA2289
:00000001FF
