:100003001200BB7D3C7C00E4FF12007D7D427C003E
:100013007F0112007D7DA97C007F0212007D7D851A
:100023007C007F0312007D7D857C007F0412007DB0
:100033007DA97C007F0512007D7D427C007F061236
:0D004300007D7D3C7C007F0712007D80B6B3
:0500BB00C2B5C2B6222F
:02005000AD07FA
:10005200E4FB7E007480A803088006CEA2E713CEDC
:1000620013D8F8FFEDF582EF558224FF92B4D2B691
:0A007200C2B60BBB08DCD2B5C2B564
:01007C002261
:10007D00AA07AF05120050AF02A8077480088002CE
:10008D00C313D8FCF4F5807F0112009D7580FF220B
:10009D00AE071FEE600B007E027DC7DDFEDEFC802D
:0100AD00EF63
:0100AE00222F
:030000000200AF4C
:0C00AF00787FE4F6D8FD7581070200039D
:00000001FF
