:100292005389F0438901758A66758CFCC28DD28CB4
:0502A200D2AFC2A92249
:10000E001202B9120292E4FDFC7F80120147E4FD58
:10001E00FC7F82120147E4FDFC7F841201477F8141
:10002E0012023B8F087F8312023B8F097F851202DB
:10003E003B8F0AE50875F00A84E5F0FD7C007F0130
:10004E001201C9E50875F00A84FD7C007F021201D9
:10005E00C97D0A7C007F031201C9E50975F00A8487
:10006E00E5F0FD7C007F041201C9E50975F00A84F4
:10007E00FD7C007F051201C97D0A7C007F061201FE
:10008E00C9E50A75F00A84E5F0FD7C007F071201D0
:10009E00C9E50A75F00A84FD7C007F081201C9E5E6
:0E00AE0008C3940A500302002CD2A902002CB1
:03000B000202DC12
:0902DC00758A66758CFCB2A5322E
:0B02D1003F065B4F666D7D077F6F40AE
:1001C900EF14B4080050549001DE75F003A4C58300
:1001D90025F0C583730201F60201FA0201FE02024B
:1001E9000202020602020E02021602021EC2A480C6
:1001F9000EC2A48012C2A48016C2A4801AD2A4C2BC
:10020900A3C2A28016D2A4C2A3D2A2800ED2A4D223
:10021900A3C2A28006D2A4D2A3D2A274D12DF58200
:1002290074023CF583E493F5807F011202A7E4F59B
:02023900802221
:1002A700AE071FEE600B007E027DC7DDFEDEFC8021
:0102B700EF57
:0102B8002223
:060147008F0B8C0C8D0DE6
:10014D00AE0CAF0D7C007D0A1200BCEFC4F8540F4D
:10015D00C868FBEEC454F048FAAE0CAF0D7C007DC0
:10016D000A1200BCED2BF50DEC3AF50CD2B5E4FD01
:10017D007E007401A805088005C333CE33CED8F9AF
:10018D00FFE50BFBEF5B24FF92B4D2B6C2B60DBDFB
:10019D0008DEE4FD7E007401A805088005C333CE9A
:1001AD0033CED8F9FFE50C5EFEE50D5F4E24FF92D0
:0B01BD00B4D2B6C2B60DBD08DBC2B55F
:0101C8002214
:02023B00A90711
:10023D00E4FDD2B5FB7E007401A803088005C3332D
:10024D00CE33CED8F9FFE9F582EF558224FF92B473
:10025D00C2B6D2B60BBB08DDE4FBD2B6C2B630B423
:10026D000DA8037401088002C333D8FC42050BBBF3
:10027D0008E8C2B5C2B4EDC4540F75F00AA4FFED81
:04028D00540F2FFFDC
:01029100224A
:0C02B900C2B5C2B6E4FDFC7F8E02014716
:030000000202C534
:0C02C500787FE4F6D8FD75810D02000E74
:1000BC00C2D5EC30E709B2D5E4C39DFDE49CFCEE5F
:1000CC0030E715B2D5E4C39FFFE49EFE1200F2C3E5
:1000DC00E49DFDE49CFC80031200F230D507C3E4E0
:0600EC009FFFE49EFE22CE
:1000F200BC000BBE0029EF8DF084FFADF022E4CCF2
:10010200F875F008EF2FFFEE33FEEC33FCEE9DECBA
:10011200984005FCEE9DFE0FD5F0E9E4CEFD22ED00
:10012200F8F5F0EE8420D21CFEADF075F008EF2F4A
:10013200FFED33FD4007985006D5F0F222C398FD3B
:050142000FD5F0EA22D8
:00000001FF
