:100462001206E61206D27B2E7D057F01120740128C
:1004720006E61205D18F298E288D278C26E4FFFEF1
:10048200FDFCAB29AA28A927A8261201A9501C7B8A
:100492002D7D017F01120740AF29AE28AD27AC2682
:1004A2001202228F298E288D278C26AF29AE28ADE5
:1004B20027AC26120271AB07AA06750C037D027FD8
:1004C2000112063D7F007E407D1C7C46AB29AA2896
:1004D200A927A826120003120271E47B107A27F9D9
:1004E200F81203C2750C047D067F0112063D020458
:0104F2007198
:06070C00C2A58F80D2A7F8
:080712007F027EC7DEFEDFFC62
:01071A0022BC
:0A073600C2A612070CC2A7020712A8
:10061F00CFCDCFCECCCE1203317C007D0A12033169
:04062F00ED2430FF87
:0A063300D2A612070CC2A70207129C
:1006A600AE07BE0104ED148006BE0209ED243F44E8
:0606B60080FF120736224E
:1006D2007F381207367F0C1207367F061207367FE5
:0406E20001020736D4
:0A074000AC031206A6AF0402063354
:0605FC008B1D8A1E891F01
:100602001206A6E4FDAB1DAA1EA91F8D82758300EA
:0C0612001202F2FF60061206330D80E9B0
:01061E0022B9
:0C059E007F0AEA24FFFDE434FFFC7E002D
:0805AA008E0D8F0E8C0F8D10D9
:1005B2007F017E00E4FBEBC39510E50F6480F874C5
:0E05C2008098500AAC0DAD0E12031F0B80E89E
:0105D0002208
:04063D008A0A8B0B8F
:100641001206A6AA0CEAD39400400D12059EAC0A2C
:08065100AD0B12061F1A80ED2B
:01065900227E
:1004F3001206A6C3EA64809480400B7F2B12063356
:100503008A168B17800E7F2D120633C3E49BF517D3
:10051300E49AF516AA15EAD39400400D12059EAC91
:0905230016AD1712061F1A80ED37
:01052C0022AC
:04052D008A1A8B1B80
:100531001206A6AA1CEAD3940040297F101205A036
:10054100AC1AAD1BCFCDCFCECCCE120331EF540FB1
:10055100FEC3940AEE5004243080022437FF1206B1
:04056100331A80D1F8
:010565002273
:040566008A238B2435
:10056A001206A6AA25EAD394004028EA24FFFDE44D
:10057A0034FFFC7F027E001205AAAC23AD24CFCD46
:10058A00CFCECCCE120331EF54012430FF12063302
:03059A001A80D2F2
:01059D00223B
:05074A007F01020736EB
:0E071B00D2B7C2B77FE6DFFED2B77FBFDFFEE8
:0107290022AD
:1006FA00C2B77E04DEFEEF24FF92B77E16DEFED27C
:01070A00B737
:01070B0022CB
:10068F00C2B77F02DFFED2B77F02DFFEA2B79200B2
:06069F007F16DFFEA20041
:0106A5002232
:02067600AD07CE
:10067800E4FCA8047401088002C333D8FC5DFF12AF
:0606880006FA0CBC08ECB0
:01068E002249
:10065A00E4FEFD12068F500DA8057401088002C33E
:0B066A0033D8FC42060DBD08EAAF06C5
:010675002262
:1006E60012071B7FCC1206767F441206767F647E45
:0406F600000206BC3C
:1005D10012071B7FCC1206767FBE12067612065AD0
:1005E1008F0812065AEFFEE508FFFDAC06EC120279
:0B05F10038E4FBFA7980784102010C2D
:1006BC00EF1FAC0670011E4C600B007D027CC7DC8A
:0506CC00FEDDFC80EBE7
:0106D1002206
:10000300EC4D6011E8497017ED33EC3304600DE4F7
:10001300FCFFFEFD22E933E8330470F80202DD122F
:1000230002A858046009E4CC248150062850090230
:1000330002E72840030202E4C0E0EB4A7044B980BF
:1000430006D0E0FB0202D3EF4E701CBD8008EBFF2D
:10005300EAFEE9FD80EBE98DF0A4FEE5F00200EC99
:10006300E9CDF9EAFEEBFFEF89F0A4FCE5F0CE89D8
:10007300F0A42EFFE435F0CD89F0A42DFEE435F095
:100083008067EF4E7005BD80D780C3EF8BF0A4ACC3
:10009300F0EE8BF0A42CFCE435F0F8EF8AF0A42CFE
:1000A300E5F038FCE433CB8DF0A42CFCE5F03BF811
:1000B300EE8AF0A42CFCE5F038F8E433CF89F0A401
:1000C3002CFCE5F038CF3400CE89F0A42FFFE5F007
:1000D3003EFEE433C98DF0A42EFEE5F039CD8AF05F
:1000E300A42FFFE5F03EFEE43DFD33D0E0FB5007D7
:1000F3000BBB000F0202E7EC2CFCEF33FFEE33FEE9
:06010300ED33FD0202BF16
:100109000202E7EC5D046005E8590470030202DDB0
:100119001202A8580460F6EC4860F2EC7004FDFE87
:10012900FF22C860DB2481C85009C39860025006C9
:100139000202E49850CAF582E9294B4A7005AB825C
:100149000202D375F0007C1A7880C3EF9BEE9AED1A
:1001590099400DC3EF9BFFEE9AFEED99FDE842F041
:10016900DC23ACF0D0E0FFD0E0FED0E0FDAB822094
:10017900E7101BEB60BAEC2CFCEF33FFEE33FEED1E
:1001890033FD0202BFE803F830E705C0F075F0005F
:10019900EF2FFFEE33FEED33FD40B830E7C280AA02
:1001A90074F8CC6480CCC86480C8F58204604FC3FD
:1001B900EB9FF5F0EA9E42F0E99D42F0E89C45F09C
:1001C900603C501DE5825FFFE582D313CB5BCBF426
:1001D9002B5582FB50280ABA002409B9002008804F
:1001E9001DE5825BFBE582D313CF5FCFF4C3132FE9
:1001F9005582FF50090EBE00050DBD00010CC3EB71
:100209009FF5F0EA9E42F0E99D42F0E89C45F060D6
:0902190007CC4820E701B3EC22F8
:10022200ED33EC33600A047003BD8004ECB2E7FCEA
:0102320022A9
:1002330075F020800E75F010800575F0087D007E46
:10024300007F003392D530D503120454EC334010B1
:10025300EF33FFEE33FEED33FDEC33FCD5F0ED224F
:0E026300E5F0247EA2D513CC92E7CDCEFF228B
:10027100EDD2E7CD33EC3392D524814006E4FFFE85
:10028100FDFC22FCE4CFCECDCC24E0501174FF80E4
:10029100EDC3CC13CCCD13CDCE13CECF13CF047081
:0702A100F030D5DE02045429
:1002A800E9D2E7C933E833F892D5EDD2E7CD33EC9C
:0702B80033FC5002B2D52215
:1002BF00EC30E7100FBF000C0EBE00080DBD0004A0
:1002CF000BEB6014A2D5EB13FCED92E7FD2274FF4C
:1002DF00FCFDFEFF22E480F8A2D574FF13FC7D80A5
:0302EF00E480EFB9
:0300000002072ACA
:0C072A00787FE4F6D8FD75812902046296
:1002F200BB010CE58229F582E5833AF583E02250C1
:1003020006E92582F8E622BBFE06E92582F8E2220A
:0D031200E58229F582E5833AF583E4932224
:10031F00EF8DF0A4A8F0CF8CF0A428CE8DF0A42EF2
:02032F00FE22AC
:10033100BC000BBE0029EF8DF084FFADF022E4CCB0
:10034100F875F008EF2FFFEE33FEEC33FCEE9DEC79
:10035100984005FCEE9DFE0FD5F0E9E4CEFD22EDBF
:10036100F8F5F0EE8420D21CFEADF075F008EF2F09
:10037100FFED33FD4007985006D5F0F222C398FDFA
:050381000FD5F0EA2297
:1003860075F008758200EF2FFFEE33FECD33CDCC2E
:1003960033CCC58233C5829BED9AEC99E5829840B1
:1003A6000CF582EE9BFEED9AFDEC99FC0FD5F0D68E
:1003B600E4CEFBE4CDFAE4CCF9A88222B800C1B9B8
:1003C6000059BA002DEC8BF084CFCECDFCE5F0CBF6
:1003D600F97818EF2FFFEE33FEED33FDEC33FCEB2F
:1003E60033FB10D703994004EB99FB0FD8E5E4F9EA
:1003F600FA227818EF2FFFEE33FEED33FDEC33FCD7
:10040600C933C910D7059BE99A4007EC9BFCE99ACA
:10041600F90FD8E0E4C9FAE4CCFB2275F010EF2F0F
:10042600FFEE33FEED33FDCC33CCC833C810D7070F
:100436009BEC9AE899400AED9BFDEC9AFCE899F84A
:0E0446000FD5F0DAE4CDFBE4CCFAE4C8F922DD
:0E045400C3E49FFFE49EFEE49DFDE49CFC22B9
:00000001FF
