:03000000020003F8
:0C000300787FE4F6D8FD75810802004A01
:0300E800010861AB
:1000C20012008FAF081200E005087FFA7E001200CE
:0300D200AA80F011
:10008F0075985053870FC2AB758BFD758DFD5389D6
:0B009F000F438920D28ED2ACD2BC22CD
:0800E0008F993099FDC29922AD
:0B00D500E599F4F5A03098FDC29822D8
:1000AA00EF1FAC0670011E4C600D0000007D0B7C3A
:0700BA00BEDCFEDDFC80E965
:0100C100221C
:10000F000200C2E493A3F8E493A34003F68001F245
:10001F0008DFF48029E493A3F85407240CC8C333F2
:10002F00C4540F4420C8834004F456800146F6DFC1
:10003F00E4800B01020408102040809000E8E47E69
:10004F00019360BCA3FF543F30E509541FFEE493B6
:10005F00A360010ECF54C025E060A840B8E493A37D
:10006F00FAE493A3F8E493A3C8C582C8CAC583CAA8
:10007F00F0A3C8C582C8CAC583CADFE9DEE780BE60
:0100EB000014
:00000001FF
