:03000000020800F3
:0C080000787FE4F6D8FD75811A020847E5
:1008F900E4F512F513F514E513FD7C00E514FB7A14
:1009090000AF1212093DE514B40907E4F514051303
:1009190080020514E514B409DEE513B409D9FD7C98
:1009290000E514FB7A00AF1212093DE4F514F51342
:04093900051280C360
:10097000EF1FAC0670011E4C600D0000007D0B7C6B
:07098000BEDCFEDDFC80E996
:01098700224D
:0C0988000A083F065B4F666D7D077F6F1D
:10088C00EF14B4080050549008A175F003A4C5836C
:10089C0025F0C583730208B90208BD0208C5020819
:1008AC00C90208D10208D50208DD0208E1C2A28003
:1008BC0002D2A2C2A3C2A48022C2A28002D2A2D21D
:1008CC00A3C2A48016C2A28002D2A2C2A3D2A480C8
:1008DC000AC2A28002D2A2D2A3D2A474082DF8E636
:0D08EC00F5807F017E00120970E4F5802286
:0A093D008F158C168D178A188B1980
:10094700751A14AF1A151AEF601EE515FD7C007FA6
:100957000312088CAD17AC167F0212088CAD19ACC8
:08096700187F0112088C80DBEF
:01096F002265
:10080C000208F9E493A3F8E493A34003F68001F201
:10081C0008DFF48029E493A3F85407240CC8C333ED
:10082C00C4540F4420C8834004F456800146F6DFBC
:10083C00E4800B0102040810204080900988E47EBB
:10084C00019360BCA3FF543F30E509541FFEE493B1
:10085C00A360010ECF54C025E060A840B8E493A378
:10086C00FAE493A3F8E493A3C8C582C8CAC583CAA3
:10087C00F0A3C8C582C8CAC583CADFE9DEE780BE5B
:010994000062
:00000001FF
