:03000000020E20CD
:0C0E2000787FE4F6D8FD75812A020800F6
:100C240050617373776F72643A004C6F636B6564E1
:100C3400212121004F4B20004E65772050617373B2
:100C4400776F72643A00455252005472792061679A
:100C540061696E3A004F6C642050617373776F72F0
:030C6400643A00EF
:10080000E4F508F509F50AF50BF50CF50DF50E758F
:100810000F2775100F120DEB0208ACE4F508E50A7E
:10082000B40312120E407BFF7A0C792E7D017F01FA
:10083000120D4580FE120A078F08E50860DDD3948B
:100840000A5035E509640460D2AE0DAF0E7C007D20
:100850000A120BBD8E0D8F0EE50875F00A84E5F0C7
:10086000250EF50EE4350DF50D0509751504AB0ED5
:10087000FA7D017F02120D86E508640B6003020910
:1008800062E50C6401702D850D0F850E10F50CF5D9
:100890000DF50EF5097BFF7A0C79387D0E7F01127C
:1008A0000D457FFA7E00120DBD120E407BFF7A0CC3
:1008B00079248028E50E65107004E50D650F7042FF
:1008C000E50B6401701FF50DF50EF509F50AF50B42
:1008D000750C01120E407BFF7A0C793C7D017F0183
:1008E000120D45806C7BFF7A0C79387D0E7F0112EA
:1008F0000D457FFA7E00120DBD120E40120DA302AF
:10090000081BE50B64017BFF7A0C794A7D0E7F01A1
:10091000700E120D45E4F509050AF50DF50E80314E
:10092000120D45E4F509050AF50DF50E7FFAFE12E4
:100930000DBD120E407BFF7A0C794E7D017F0112B6
:100940000D45E50AFB7A007515017D0F7F01120D3B
:1009500086751504AB0EAA0D7D017F02120D86026D
:10096000081BE508B40C15E4F50DF50EF509751531
:1009700004AB0EAA0D7D017F02120D86E508B410AE
:1009800023AE0DAF0E7C007D0A120BCF8E0D8F0EA5
:10099000E50960021509751504AB0EAA0D7D017FEE
:1009A00002120D86E508640D7027F50DF50E750B26
:1009B00001F509120E407BFF7A0C79597D017F0108
:1009C000120D45751504AB0EAA0D7D017F02120DA7
:1009D00086E508640E600302081BF50DF50EF509A7
:1009E000F50AF50BF50C120E407BFF7A0C79247D8D
:1009F000017F01120D45751504AB0EAA0D7D017F17
:070A000002120D8602081B23
:100DBD00EF1FAC0670011E4C600D7D0B7CBE00005C
:070DCD0000DCFEDDFC80E903
:010DD40022FC
:100A0700E4F5117590FFC2932097137F14FE120D22
:100A1700BD3097FD7F147E00120DBD751101209624
:100A2700147F147E00120DBD3096FD7F147E0012D8
:100A37000DBD7511052095147F147E00120DBD3074
:100A470095FD7F147E00120DBD7511092094147F4A
:100A5700147E00120DBD3094FD7F147E00120DBD73
:100A670075110D7590FFC2922097147F147E0012A6
:100A77000DBD3097FD7F147E00120DBD751102204C
:100A870096147F147E00120DBD3096FD7F147E00F4
:100A9700120DBD7511062095147F147E00120DBD31
:100AA7003095FD7F147E00120DBD75110A20941438
:100AB7007F147E00120DBD3094FD7F147E00120D51
:100AC700BD75110E7590FFC2912097147F147E009B
:100AD700120DBD3097FD7F147E00120DBD751103F9
:100AE7002096147F147E00120DBD3096FD7F147E74
:100AF70000120DBD7511072095147F147E00120D8D
:100B0700BD3095FD7F147E00120DBD75110B20942D
:100B1700147F147E00120DBD3094FD7F147E0012E9
:100B27000DBD75110F7590FFC2902097147F147E2D
:100B370000120DBD3097FD7F147E00120DBD75119B
:100B4700042096147F147E00120DBD3096FD7F148D
:100B57007E00120DBD7511082095147F147E0012BA
:100B67000DBD3095FD7F147E00120DBD75110C2053
:100B770094147F147E00120DBD3094FD7F147E0007
:080B8700120DBD751110AF1134
:010B8F002243
:060E1100C2A58F80D2A7EC
:080E17007F027EEFDEFEDFFC2E
:010E1F0022B0
:0A0E2C00C2A6120E11C2A7020E1793
:100D6800CFCDCFCECCCE120BCF7C007D0A120BCFCD
:040D7800ED2430FF37
:0A0D7C00D2A6120E11C2A7020E1734
:100DD500AE07BE0104ED148006BE0209ED243F44B2
:060DE50080FF120E2C221B
:100DEB007F38120E2C7F0C120E2C7F06120E2C7FCE
:040DFB0001020E2CB7
:0A0E3600AC03120DD5AF04020D7CD1
:060D45008B118A128913D4
:100D4B00120DD5E4FDAB11AA12A9138D8275830088
:0C0D5B00120B90FF6006120D7C0D80E969
:010D67002269
:0C0D12007F0AEA24FFFDE434FFFC7E00B1
:080D1E008E168F178C188D1939
:100D26007F017E00E4FBEBC39519E5186480F87437
:0E0D36008098500AAC16AD17120BBD0B80E86A
:010D4400228C
:040D86008A138B142D
:100D8A00120DD5AA15EAD39400400D120D12AC1318
:080D9A00AD14120D681A80ED82
:010DA200222E
:100C6700120DD5C3EA64809480400B7F2B120D7C54
:100C77008A1F8B20800E7F2D120D7CC3E49BF520ED
:100C8700E49AF51FAA1EEAD39400400D120D12AC88
:090C97001FAD20120D681A80ED5A
:010CA0002231
:040CA1008A238B24F3
:100CA500120DD5AA25EAD3940040297F10120D1400
:100CB500AC23AD24CFCDCFCECCCE120BCFEF540F7E
:100CC500FEC3940AEE5004243080022437FF120D2F
:040CD5007C1A80D134
:010CD90022F8
:040CDA008A288B29B0
:100CDE00120DD5AA2AEAD394004028EA24FFFDE497
:100CEE0034FFFC7F027E00120D1EAC28AD29CFCD45
:100CFE00CFCECCCE120BCFEF54012430FF120D7C91
:030D0E001A80D276
:010D110022BF
:050E40007F01020E2CF1
:100DFF006E6F7468696E670068616861285E205E57
:020E0F002900B8
:100DA3007BFF7A0D79FF7D017F01120D457BFF7A71
:0A0DB3000E79077D017F02020D4555
:100B9000BB010CE58229F582E5833AF583E022501A
:100BA00006E92582F8E622BBFE06E92582F8E22264
:0D0BB000E58229F582E5833AF583E493227E
:100BBD00EF8DF0A4A8F0CF8CF0A428CE8DF0A42E4C
:020BCD00FE2206
:100BCF00BC000BBE0029EF8DF084FFADF022E4CC0A
:100BDF00F875F008EF2FFFEE33FEEC33FCEE9DECD3
:100BEF00984005FCEE9DFE0FD5F0E9E4CEFD22ED19
:100BFF00F8F5F0EE8420D21CFEADF075F008EF2F63
:100C0F00FFED33FD4007985006D5F0F222C398FD53
:050C1F000FD5F0EA22F0
:00000001FF
