:03000000020A876A
:0C0A8700787FE4F6D8FD7581240209A2F6
:0A0A9E0042697274686461792100F6
:1009A20078137C007D007BFF7A0A799E7E007F0AA5
:1009B2001208D0E4F51DF51EF51F120A73E4F51DA9
:1009C200E51E7003D38001C34019851D1E7408956E
:1009D2001F2413F8E6FF7408251EF8A607151E0546
:1009E2001F80DD7B007A007908E4FDFF12090F7F8A
:0F09F20032120A5F051DE51DC3940940C380FE44
:100A5F00AE071FEE600D0000007E0B7DBEDDFEDEDB
:030A6F00FC80ED1B
:010A72002261
:100A4400C2A6C2A5C2A78F807F017E00120A26D249
:0B0A5400A77F017E00120A26C2A72225
:0A0A0100AB21AA22A9231208F6FF78
:100A0B00D2A6C2A5C2A78F807F017E00120A26D272
:0B0A1B00A77F017E00120A26C2A7225E
:100A73007F38120A447F0C120A447F06120A447F0D
:040A830001020A441E
:050AA8007F01020A4479
:08090F008F208B218A2289232D
:10091700E4F524EDD3940140030209A1E520940FE7
:100927005078EDC394015039AB21AA22A9231208AC
:10093700F66067C374109520FFE524C39FE5245034
:1009470006248025208004252024B0FF120A4412A3
:100957000A0174012523F523E43522F522052480B5
:10096700C7AB21AA22A9231208F6602EC3741095DB
:1009770020FFE524C39FE524500624C025208004DA
:1009870025202470FF120A44120A0174012523F559
:0A09970023E43522F522052480C771
:0109A1002233
:0B0A9300EF1FAC0670011E4C70F62235
:100A2600D3EF9400EE940040147D6E7C00ED1D70B3
:0D0A3600011CED4C70F7EF1F70E61E80E311
:010A43002290
:10080000E709F608DFFA8046E709F208DFFA803EDA
:1008100088828C83E709F0A3DFFA8032E309F608C7
:10082000DFFA8078E309F208DFFA807088828C832F
:10083000E309F0A3DFFA806489828A83E0A3F608E3
:10084000DFFA805889828A83E0A3F208DFFA804CBD
:1008500080D280FA80C680D4806980F28033801094
:1008600080A680EA809A80A880DA80E280CA8033FD
:1008700089828A83ECFAE493A3C8C582C8CCC58375
:10088000CCF0A3C8C582C8CCC583CCDFE9DEE78045
:100890000D89828A83E493A3F608DFF9ECFAA9F0C4
:1008A000EDFB2289828A83ECFAE0A3C8C582C8CC1A
:1008B000C583CCF0A3C8C582C8CCC583CCDFEADE33
:1008C000E880DB89828A83E493A3F208DFF980CC95
:1008D00088F0EF60010E4E60C388F0ED2402B4048E
:1008E0000050B9F582EB2402B4040050AF23234535
:0608F00082239008507302
:1008F600BB010689828A83E0225002E722BBFE0200
:09090600E32289828A83E4932232
:00000001FF
