:10000E00F921F980F9E1FA36FA8CFAD8FB23FB686C
:10001E00FBAAFBE9FC23FC5BFC8FFCC0FCEFFD1B89
:10002E00FD45FD6CFD91FDB4FDD5FDF4FE12FE2CDB
:10003E00FE4FFE60FE78FE8EFEA2FEB6FEC9FEDA12
:10004E00FEEBFEFAFF09FF17000018031703130457
:10005E000E02100C1803170313020E060C060B02E9
:10006E0009020B010C0213030B020C010E02170303
:1000D100750A00750B25120123D3E508950BE495EC
:1000E1000A4003E4F508E50890005893F50905086E
:1000F100E5089375F0ACA4FFAEF012010D0508C23E
:0C0101008C7F027E0012010DD28C80CD9C
:03000B0002007E72
:10007E00C0E0C083C082C0D075D000C004C005C02F
:10008E0007E50925E0240EF582E43400F5837401BA
:10009E00937002E493601DE50925E0240EF582E4D9
:1000AE003400F583E493FC740193FDECF58CAF05FD
:1000BE008F8AB2A5D007D005D004D0D0D082D083FD
:0300CE00D0E0324D
:100123005389F0438901758A33758CFEC28DD28C55
:05013300D2AFD2A922A9
:10010D00EF1FAC0670011E4C600B007D027CC7DC3E
:05011D00FEDDFC80EB9B
:0101220022BA
:03000000020138C2
:0C013800787FE4F6D8FD75810B0200D141
:00000001FF
