:030000000208C72C
:0C08C700787FE4F6D8FD75811A02090E56
:10080000751206751306751406E4F51520B3277FD7
:100810000F1209E130B3FD7F0F1209E1E514B409AD
:1008200013E4F514E513B40907E4F5130512800683
:1008300005138002051420B1257F0F1209E130B1A4
:10084000FD7F0F1209E1E5147012751409E51370AC
:10085000077513091512800615138002151420B2AE
:10086000547F0F1209E130B2FD7F0F1209E1E4F568
:010870001572
:10087100751632AF161516EF601DE513FD7C00E508
:1008810014FB7A00AF121209BE20B0E77F0F1209E4
:10089100E130B0FD751501E5147012751409E51309
:1008A100700775130915128006151380021514E5DA
:0408B10015B401BCBD
:1008B500E513FD7C00E514FB7A00AF121209BE02B8
:0208C500080C1D
:1009E100AE071FEE600D0000007E0B7DBEDDFEDE5A
:0309F100FC80ED9A
:0109F40022E0
:0C09F5000A083F065B4F666D7D077F6FB0
:10095300EF14B40800505490096875F003A4C583DC
:1009630025F0C583730209800209840209880209FC
:100973008C0209900209980209A00209A8C2A48066
:100983000EC2A48012C2A48016C2A4801AD2A4C22A
:10099300A3C2A28016D2A4C2A3D2A2800ED2A4D292
:1009A300A3C2A28006D2A4D2A3D2A274082DF8E6D1
:0B09B300F5807F011209E1E4F58022CD
:1009BE008C178D188A198B1AEFFD7C007F07120990
:1009CE0053AD18AC177F06120953AD1AAC197F053B
:0309DE00020953B8
:1008D300020800E493A3F8E493A34003F68001F233
:1008E30008DFF48029E493A3F85407240CC8C33326
:1008F300C4540F4420C8834004F456800146F6DFF5
:10090300E4800B01020408102040809009F5E47E86
:10091300019360BCA3FF543F30E509541FFEE493E9
:10092300A360010ECF54C025E060A840B8E493A3B0
:10093300FAE493A3F8E493A3C8C582C8CAC583CADB
:10094300F0A3C8C582C8CAC583CADFE9DEE780BE93
:010A010000F4
:00000001FF
