:0D01C600011E03011F06012010021C000095
:1001EC005389F0438901C28DD28CE4F58A758CDC7D
:0501FC00D2AFD2A922E0
:100112001201ECE51E75F00A84E5F0FD7C00E4FBBB
:10012200FA7F0112009AE51E75F00A84FD7C00E454
:10013200FBFA7F0212009AE51F75F00A84E5F0FDD2
:100142007C007B017A007F0312009AE51F75F00A9A
:1001520084FD7C00E4FBFA7F0412009AE52075F02E
:100162000A84E5F0FD7C007B017A007F0512009A8B
:10017200E52075F00A84FD7C00E4FBFA7F0612009C
:030182009A8090D0
:03000B000201856A
:04018500C0E0C0D046
:10018900051DE51D7002051C758A00758CDCE51DD1
:100199006464451C7022F51CF51D051EE51EB43C62
:1001A90017751E00051FE51FB43C0D751F000520BE
:0801B900E520B41803752000D5
:0501C100D0D0D0E032B7
:1001D3000A083F065B4F666D7D077F6F0A12BF8675
:0801E300DBCFE6EDFD87FFEF25
:10009A008C218D22EF14B4080050549000B375F0EF
:1000AA0003A4C58325F0C583730200CB0200CF02E7
:1000BA0000D30200D70200DB0200E30200EB0200D9
:1000CA00F3C2A4800EC2A48012C2A48016C2A48065
:1000DA001AD2A4C2A3C2A28016D2A4C2A3D2A28058
:1000EA000ED2A4D2A3C2A28006D2A4D2A3D2A2EBD9
:1000FA004A60047412800274082522F8E6F5807FAB
:08010A0001120201E4F580225C
:10020100AE071FEE600B007E027DC7DDFEDEFC80C7
:01021100EFFD
:0102120022C9
:0300000002000EED
:0C000E00787FE4F6D8FD758122020055D1
:10001A00020112E493A3F8E493A34003F68001F2E9
:10002A0008DFF48029E493A3F85407240CC8C333E7
:10003A00C4540F4420C8834004F456800146F6DFB6
:10004A00E4800B01020408102040809001C6E47E7F
:10005A00019360BCA3FF543F30E509541FFEE493AB
:10006A00A360010ECF54C025E060A840B8E493A372
:10007A00FAE493A3F8E493A3C8C582C8CAC583CA9D
:10008A00F0A3C8C582C8CAC583CADFE9DEE780BE55
:0101EB000013
:00000001FF
