:10000E00F921F980F9E1FA36FA8CFAD8FB23FB686C
:10001E00FBAAFBE9FC23FC5BFC8FFCC0FCEFFD1B89
:10002E00FD45FD6CFD91FDB4FDD5FDF4FE12FE2CDB
:10003E00FE4FFE60FE78FE8EFEA2FEB6FEC9FEDA12
:10004E00FEEBFEFAFF09FF1700001008240424013E
:10005E000C010E010C01100824030C020E010C0100
:10006E000E01100109030C0209030C0209030C0214
:10007E000E020C020B08240424041008240424018C
:10008E000C010E010C01100824030C010E010C01D1
:10009E000E01100109030C0109030C0109030C01E7
:1000AE0010020E020B082404240409010C0115038E
:1000BE001501150113011502150113011501130187
:1000CE001501130310082404240209010C01150361
:1000DE00150115011301150113011703170117015E
:1000EE001501170315021009240110011301100147
:1000FE000E0310010E0310010E0310011301100167
:10010E00130110010E0310010E0310010E04240240
:10011E000C010E01100209020C0210020E03100156
:0A012E000E010C010C020908240464
:10018000750A00750BDF1201D2D3E509950BE495D2
:100190000A4003E4F509E50990005893F5080509BC
:1001A000E5099375F096A4FFAEF01201BC0509C2F3
:0C01B0008C7F027E001201BCD28C80CD3E
:03000B00020138B7
:10013800C0E0C083C082C0D075D000C006E50825E5
:10014800E0240EF582E43400F5837401937002E430
:1001580093601AE50825E0240EF582E43400F5835F
:10016800E493FE740193F58AEEF58CB2A5D006D01F
:08017800D0D082D083D0E03228
:1001D2005389F0438901758A66758CFCC28DD28C75
:0501E200D2AFD2A922FA
:1001BC00EF1FAC0670011E4C600B007D027CC7DC8F
:0501CC00FEDDFC80EBEC
:0101D100220B
:030000000201E713
:0C01E700787FE4F6D8FD75810B020180E2
:00000001FF
