:09035B000112000113000114005D
:100389005389F0438901758A66758CFCC28DD28CBC
:05039900D2AFD2A92241
:10000E001203891203DE8F18E518B4010CE519707E
:10001E00047F0180027F008F19E518B40207E4F512
:10002E0016F515F517E5186403701EE517FD7C002F
:10003E007F011202ADE515FD7C007F021202ADE5D7
:10004E0016FD7C007F031202ADE518B404157F0186
:10005E0012027D8F177F0212027D8F157F0312020F
:10006E007D8F16E51675F00A84FD7C007F01120364
:10007E00BCE51675F00A84E5F0FD7C007F021203E4
:10008E00BC7D0A7C007F031203BCE51575F00A8463
:10009E00FD7C007F041203BCE51575F00A84E5F0C3
:1000AE00FD7C007F051203BC7D0A7C007F061203D7
:1000BE00BCE51775F00A84FD7C007F071203BCE5D2
:1000CE001775F00A84E5F0FD7C007F081203BC0270
:0200DE0000110F
:1002FF00E519601E0517E517B46417E4F517051522
:10030F00E515B43C0DE4F5150516E516B46403E4E4
:03031F00F51622AE
:03000B000201D916
:1001D900C0E0C0F0C083C082C0D075D000C000C0EC
:0D01E90001C002C003C004C005C006C0076D
:1001F600051205130514758A66758CFCE512C39401
:10020600024006751200120340E513C3941440061B
:10021600751300120244E514C3940A4006751400CF
:030226001202FFC2
:10022900D007D006D005D004D003D002D001D00029
:0B023900D0D0D082D083D0F0D0E032D3
:0C03B0003F065B4F666D7D077F6F4000CD
:0E0364000909000B0B0B0B0B0B0B0B01080117
:0903BC00AE0574092FF8A6062213
:10016C00E4F580EF14B40800505490018475F0034A
:10017C00A4C58325F0C583730201C40201BC02012E
:10018C00B40201AC0201A80201A40201A002019C6C
:10019C00C2A4800EC2A48012C2A48016C2A4801A6B
:1001AC00D2A4C2A3C2A28016D2A4C2A3D2A2800E91
:1001BC00D2A4D2A3C2A28006D2A4D2A3D2A274B0DB
:0D01CC002DF58274033CF583E493F5802249
:1003400074092508F8E6FD7C00AF0812016C050869
:0A035000E508C39409400375080195
:01035A002280
:10039E00AE071FEE600B007E027DC7DDFEDEFC8029
:0103AE00EF5F
:0103AF00222B
:0503DE00AF1CE4F51C5A
:0103E30022F7
:10037300E4FF20B1010F20B0027F0220B2027F030D
:0503830020B3027F041D
:010388002252
:10024400851B1A1203738F1BE51AB40107E51B7093
:1002540003751C01E51AB40207E51B7003751C0243
:10026400E51AB40307E51B7003751C03E51AB4040F
:0802740007E51B7003751C0473
:01027C00225F
:1002AD008F1D8C1E8D1F1203C57FA01202D6120347
:1002BD00D7AF1D1202D61203D7AF1F1202D61203EB
:0902CD00D71200037F0502039E15
:02027D008F1DD3
:10027F001203C57FA01202D61203D7AF1D1202D6EA
:10028F001203D71203C57FA11202D61203D712038E
:0D029F00228F1ED2001203CE120003AF1EEC
:0102AC00222F
:0903C500D2A1D2A0C2A0C2A12263
:07000300C2A0D2A1D2A0228D
:0202D600AD0772
:1002D800E4FB7E007480A803088006CEA2E713CE54
:1002E80013D8F8FFEDF582EF558224FF92A0D2A132
:0602F800C2A10BBB08DCF3
:0102FE0022DD
:10032200E4FFD2A0FED2A130A00DA80674800880FE
:0D03320002C313D8FC4207C2A10EBE08E8AA
:01033F00229B
:0903CE00A20092A0D2A1C2A1225A
:0703D700D2A0D2A1C2A122B5
:030000000200E01B
:0C00E000787FE4F6D8FD7581200201272E
:1000EC0002000EE493A3F8E493A34003F68001F21C
:1000FC0008DFF48029E493A3F85407240CC8C33315
:10010C00C4540F4420C8834004F456800146F6DFE3
:10011C00E4800B010204081020408090035BE47E15
:10012C00019360BCA3FF543F30E509541FFEE493D8
:10013C00A360010ECF54C025E060A840B8E493A39F
:10014C00FAE493A3F8E493A3C8C582C8CAC583CACA
:10015C00F0A3C8C582C8CAC583CADFE9DEE780BE82
:01037200008A
:00000001FF
