:03000000020BBC34
:0C0BBC00787FE4F6D8FD758116020AEC83
:0A0BD3006B65793A003030303000D5
:100AEC0078087C007D007BFF7A0B79D87E007F052F
:100AFC00120A1AE4F50DF50EF50FF510120B947B96
:100B0C00FF7A0B79D3E4FDFF120A597B007A007946
:100B1C00087D01E4FF120A597508017B007A0079FF
:0A0B2C00087D01E4FF120A5980FE63
:100B7900C2A6C2A5C2A78F807F017E00120B5BD2DD
:0B0B8900A77F017E00120B5BC2A722B9
:0A0B3600AB12AA13A914120A40FF23
:100B4000D2A6C2A5C2A78F807F017E00120B5BD206
:0B0B5000A77F017E00120B5BC2A722F2
:100B94007F38120B797F0C120B797F06120B797F49
:040BA40001020B79C6
:050BDD007F01020B790D
:080A59008F118B128A1389141E
:100A6100E4F515EDD394014003020AEBE511940F6F
:100A71005078EDC394015039AB12AA13A914120A8C
:100A8100406067C374109511FFE515C39FE51550CC
:100A910006248025118004251124B0FF120B791240
:100AA1000B3674012514F514E43513F5130515807F
:100AB100C7AB12AA13A914120A40602EC374109571
:100AC10011FFE515C39FE515500624C025118004CB
:100AD10025112470FF120B79120B3674012514F5C0
:0A0AE10014E43513F513051580C762
:010AEB0022E8
:0B0BC800EF1FAC0670011E4C70F622FF
:100B5B00D3EF9400EE940040147D6E7C00ED1D707D
:0D0B6B00011CED4C70F7EF1F70E61E80E3DB
:010B7800225A
:100BA800AE071FEE600D7E0B7DBE000000DDFEDE91
:030BB800FC80EDD1
:010BBB002217
:10080000E4F5167590FFC2932097107F14120BA881
:100810003097FD7F14120BA87516012096107F14D7
:10082000120BA83096FD7F14120BA87516052095A3
:10083000107F14120BA83095FD7F14120BA87516AB
:10084000092094107F14120BA83094FD7F14120B12
:10085000A875160D7590FFC2922097107F14120B89
:10086000A83097FD7F14120BA87516022096107FF2
:1008700014120BA83096FD7F14120BA875160620D3
:1008800095107F14120BA83095FD7F14120BA875DC
:10089000160A2094107F14120BA83094FD7F1412B6
:1008A0000BA875160E7590FFC2912097107F141239
:1008B0000BA83097FD7F14120BA875160320961015
:1008C0007F14120BA83096FD7F14120BA875160723
:1008D0002095107F14120BA83095FD7F14120BA8E1
:1008E00075160B2094107F14120BA83094FD7F1402
:1008F000120BA875160F7590FFC2902097107F14E9
:10090000120BA83097FD7F14120BA87516042096C1
:10091000107F14120BA83096FD7F14120BA87516C9
:10092000082095107F14120BA83095FD7F14120B30
:10093000A875160C2094107F14120BA83094FD7F1C
:0909400014120BA8751610AF1675
:01094900228B
:10094A00E709F608DFFA8046E709F208DFFA803E8F
:10095A0088828C83E709F0A3DFFA8032E309F6087C
:10096A00DFFA8078E309F208DFFA807088828C83E4
:10097A00E309F0A3DFFA806489828A83E0A3F60898
:10098A00DFFA805889828A83E0A3F208DFFA804C72
:10099A0080D280FA80C680D4806980F28033801049
:1009AA0080A680EA809A80A880DA80E280CA8033B2
:1009BA0089828A83ECFAE493A3C8C582C8CCC5832A
:1009CA00CCF0A3C8C582C8CCC583CCDFE9DEE780FA
:1009DA000D89828A83E493A3F608DFF9ECFAA9F079
:1009EA00EDFB2289828A83ECFAE0A3C8C582C8CCCF
:1009FA00C583CCF0A3C8C582C8CCC583CCDFEADEE8
:100A0A00E880DB89828A83E493A3F208DFF980CC49
:100A1A0088F0EF60010E4E60C388F0ED2402B40442
:100A2A000050B9F582EB2402B4040050AF232345E9
:060A3A00822390099A736B
:100A4000BB010689828A83E0225002E722BBFE02B4
:090A5000E32289828A83E49322E7
:00000001FF
