:10009A000000000000000000FF08080808FF001F19
:1000AA00688888681F00FF8888887000FF888888A9
:1000BA007000C030101F1030C000000000000000A7
:1000CA0000FF9191916E00BF0000FF989492610029
:1000DA00808080FF80808000FF08080808FF00FFFA
:1000EA00818181423C001F688888681F00C03010E7
:1000FA001F1030C000000000FDFD000000000000DD
:02010A000000F3
:0301C9000108002A
:10015E001200031201A2E4F50AE50A250990009A9D
:10016E0093FD7C00AF0A120182050AE50AC39408CA
:04017E0040E780E2F4
:03000B00020139B6
:04013900C0E0C0D092
:10013D000508758A66758CFCE508B4FA0F7508001C
:0C014D000509E509C3946A400375090028
:05015900D0D0D0E0321F
:05000300C2B5C2B622E7
:02010C00AD073D
:10010E00E4FB7E007480A803088006CEA2E713CE1F
:10011E0013D8F8FFEDF582EF558224FF92B4D2B6D4
:0A012E00C2B60BBB08DCD2B5C2B5A7
:0101380022A4
:10018200AA07AF0512010CAF02A80774800880020B
:10019200C313D8FCF4F5807F011201B77580FF22EA
:1001B700AE071FEE600B007E027DC7DDFEDEFC8012
:0101C700EF48
:0101C8002214
:1001A2005389F0438901758A66758CFCC28DD28CA5
:0501B200D2AFD2A9222A
:0300000002000EED
:0C000E00787FE4F6D8FD75810A020055E9
:10001A0002015EE493A3F8E493A34003F68001F29D
:10002A0008DFF48029E493A3F85407240CC8C333E7
:10003A00C4540F4420C8834004F456800146F6DFB6
:10004A00E4800B01020408102040809001C9E47E7C
:10005A00019360BCA3FF543F30E509541FFEE493AB
:10006A00A360010ECF54C025E060A840B8E493A372
:10007A00FAE493A3F8E493A3C8C582C8CAC583CA9D
:10008A00F0A3C8C582C8CAC583CADFE9DEE780BE55
:0101CC000032
:00000001FF
