:03000000020800F3
:0C080000787FE4F6D8FD758109020847F6
:0808DE001208CA75A0FE80FE9D
:1008CA00758901C28DD28C758CDB758AFFD2AFD245
:0408DA00A9C2B922D4
:0608E600010800010900F9
:03000B0002088C5C
:10088C00C0E0C0D075D000C000C007758CDB758A85
:10089C00FF0508E508B4641D0509E509B4080375EE
:1008AC000900AF09A8077401088002C333D8FCF40F
:0E08BC00F5A0750801D007D000D0D0D0E032F2
:10080C000208DEE493A3F8E493A34003F68001F21C
:10081C0008DFF48029E493A3F85407240CC8C333ED
:10082C00C4540F4420C8834004F456800146F6DFBC
:10083C00E4800B01020408102040809008E6E47E5E
:10084C00019360BCA3FF543F30E509541FFEE493B1
:10085C00A360010ECF54C025E060A840B8E493A378
:10086C00FAE493A3F8E493A3C8C582C8CAC583CAA3
:10087C00F0A3C8C582C8CAC583CADFE9DEE780BE5B
:0108EC00000B
:00000001FF
