:03000000020800F3
:0C080000787FE4F6D8FD758111020847EE
:0C0936000A083F065B4F666D7D077F6F6F
:10091E00EF1FAC0670011E4C600D0000007D0B7CBD
:07092E00BEDCFEDDFC80E9E8
:01093500229F
:10088C00EF14B4080050549008A175F003A4C5836C
:10089C0025F0C583730208B90208BD0208C102081D
:1008AC00C50208C90208D10208D90208E1C2A48015
:1008BC000EC2A48012C2A48016C2A4801AD2A4C2F2
:1008CC00A3C2A28016D2A4C2A3D2A2800ED2A4D25A
:1008DC00A3C2A28006D2A4D2A3D2A274082DF8E699
:0D08EC00F5807F017E0012091EE4F5A022B8
:1008F9007D027C007F0812088CE4FDFC7F0712084A
:100909008C7D027C007F0612088C7D037C007F05AC
:0509190012088C80DBD8
:10080C000208F9E493A3F8E493A34003F68001F201
:10081C0008DFF48029E493A3F85407240CC8C333ED
:10082C00C4540F4420C8834004F456800146F6DFBC
:10083C00E4800B0102040810204080900936E47E0D
:10084C00019360BCA3FF543F30E509541FFEE493B1
:10085C00A360010ECF54C025E060A840B8E493A378
:10086C00FAE493A3F8E493A3C8C582C8CAC583CAA3
:10087C00F0A3C8C582C8CAC583CADFE9DEE780BE5B
:0109420000B4
:00000001FF
