:100A4600543A0054483A00544C3A004F563A002063
:040A5600202020003C
:030AD80001080012
:10046D00120A5A120A317B2E7D077F01120AAE7BCA
:10047D00DF7D0A7F01120AAE7B437D0B7F01120ADD
:10048D00AE7BFF7A0A79467D017F011209277BFF3A
:10049D007A0A79497D017F021209277BFF7A0A7951
:1004AD004D7D097F021209277F0A12081B8F0E7FCF
:1004BD000B12081B8F0FC3E50E648094F8500DC30B
:1004CD00E50F6480F8E50E6480985003750E32D305
:1004DD00E50F64809449400DD3E50E6480F8E50F77
:1004ED006480984003E4F50FE50EFB3395E0FA7553
:1004FD0018037D047F021207E1E50FFB3395E0FA47
:10050D007518027D0C7F021207E1120A6E1208ACFB
:10051D008F138E128D118C10E4FFFEFDFCAB13AA10
:10052D0012A911A8101201B4501E7B2D7D037F015D
:10053D00120AAEAF13AE12AD11AC1012022D8F0D0B
:10054D008E0C8D0B8C0A80157B2B7D037F01120A7F
:10055D00AE85130D85120C85110B85100AAF13AEE8
:10056D0012AD11AC1012027CAB07AA067518037DF3
:10057D00047F011209867F007E407D1C7C46AB13F3
:10058D00AA12A911A81012000E12027CE47B107A97
:10059D0027F9F81203CD7518027D087F011209861F
:1005AD001200038F09E5096066B4010D050EC3E560
:1005BD000E648094F84002150EE509B40211150E73
:1005CD00D3E50F6480F8E50E6480985002050EE5C2
:1005DD0009B40311050FC3E50E6480F8E50F6480BF
:1005ED00984002150FE509B4040D150FD3E50F64FE
:1005FD008094495002050FE50EFD3395E0FC7F0A0E
:10060D00120881E50FFD3395E0FC7F0B120881ACDC
:10061D000EEC120248AB13AA12A911A8101201B4C4
:10062D0060025013AC0FEC120248AB13AA12A911C1
:10063D00A8101201B450477BFF7A0A79517D0D7FC6
:10064D0001120927AC0EEC120248AB13AA12A91124
:10065D00A8101201B4600B40097B487D107F011278
:10066D000AAEAC0FEC120248AB13AA12A911A810D6
:10067D001201B450097B4C7D107F01120AAEAC0EF5
:10068D00EC120248AB13AA12A911A8101201B44022
:10069D00030204F5AC0FEC120248AB13AA12A91118
:1006AD00A8101201B4600250030204F57BFF7A0A10
:0C06BD0079557D0D7F011209270204F51C
:03000B0002075594
:10075500C0E0C0F0C083C082C0D075D000C000C06A
:0D07650001C002C003C004C005C006C007EB
:100772000508758A66758CFCE508B41406750800D0
:030782001207A0BB
:10078500D007D006D005D004D003D002D001D000C8
:0B079500D0D0D082D083D0F0D0E03272
:100881008F148C158D16120AB87FA01208D7120A80
:10089100D1AF141208D7120AD1AF161208D7120A13
:0B08A100D1120ACA7F057E000209DAAE
:02081B008F1438
:10081D00E4F515120AB87FA01208D7120AD1AF1449
:10082D001208D7120AD1120AB87FA11208D7120ADC
:10083D00D112094A8F15D200120AC1120ACAAF1578
:01084D002288
:090AB800D2A1D2A0C2A0C2A12269
:070ACA00C2A0D2A1D2A022BC
:090AC100A20092A0D2A1C2A12260
:070AD100D2A0D2A1C2A122B4
:0208D700AD076B
:1008D900E4FB7E007480A803088006CEA2E713CE4D
:1008E90013D8F8FFEDF582EF558224FF92A0D2A12B
:0608F900C2A10BBB08DCEC
:0108FF0022D6
:10094A00E4FFD2A0FED2A130A00DA80674800880D0
:0D095A0002C313D8FC4207C2A10EBE08E87C
:01096700226D
:1009DA00EF1FAC0670011E4C600B007D027CC7DC69
:0509EA00FEDDFC80EBC6
:0109EF0022E5
:060A9500C2A58F80D2A76C
:080A9B007F027EC7DEFEDFFCD6
:010AA3002230
:0A0AA400C2A6120A95C2A7020A9B1F
:10096800CFCDCFCECCCE12033C7C007D0A12033C07
:04097800ED2430FF3B
:0A097C00D2A6120A95C2A7020A9B38
:1009F000AE07BE0104ED148006BE0209ED243F449B
:060A000080FF120AA4228F
:100A5A007F38120AA47F0C120AA47F06120AA47F06
:040A6A0001020AA4D7
:0A0AAE00AC031209F0AF0402097C4A
:060927008B148A158916ED
:10092D001209F0E4FDAB14AA15A9168D827583008A
:0C093D001202FDFF600612097C0D80E92B
:01094900228B
:0C084E00EA24FFFDE434FFFC7F0A7E007A
:08085A008E1B8F1C8C1D8D1EEE
:100862007F017E00E4FBEBC3951EE51D6480F874F6
:0E0872008098500AAC1BAD1C12032A0B80E8C4
:010880002255
:040986008A168B172B
:10098A001209F0AA18EAD39400400D12084EAC16C8
:08099A00AD171209681A80ED87
:0109A2002232
:1007E1001209F0C3EA64809480400B7F2B12097CCC
:1007F1008A198B1A800E7F2D12097CC3E49BF51A8E
:10080100E49AF519AA18EAD39400400D12084EACE7
:0908110019AD1A1209681A80EDF4
:01081A0022BB
:100A6E00120A827FCC1209007F441209007F907E09
:040A7E00010209DA8E
:1008AC00120A827FCC1209007FBE1209001209A322
:1008BC008F141209A3EFFEE514FFFDAC06EC120237
:0B08CC0043E4FBFA7980784102011739
:100A8200C2AFD2B7C2B77FE6DFFED2B77FBFDFFE0B
:020A9200D2AFE1
:010A9400223F
:100A1C00C2AFC2B77F04DFFEA20092B77F16DFFE23
:040A2C00D2B7D2AFBC
:010A300022A3
:1009BF00C2AFC2B77F02DFFED2B77F02DFFEA2B7A0
:0A09CF0092007F16DFFED2AFA200F7
:0109D90022FB
:02090000AD0741
:10090200E4FB7E007401A803088005C333CE33CE16
:10091200D8F9FFEDF582EF558224FF9200120A1CEE
:040922000BBB08DE25
:0109260022AE
:1009A300E4FEFD1209BF500DA8057401088002C3BF
:0B09B30033D8FC42060DBD08EAAF0679
:0109BE002216
:07000300AF24E4F523F5240E
:01000A0022D3
:100A0600E4FF20B1010F20B0027F0220B2027F0373
:050A160020B3027F0483
:010A1B0022B8
:1007A000852221120A068F22E521B40109E5227073
:1007B00005F523752401E521B40209E5227005F54C
:1007C00023752402E521B40309E5227005F523759C
:1007D0002403E521B40409E5227005F523752404FA
:0107E00022F6
:100A31005389F0438901758A66758CFCC28DD28C0D
:050A4100D2AFD2A92292
:10000E00EC4D6011E8497017ED33EC3304600DE4EC
:10001E00FCFFFEFD22E933E8330470F80202E81219
:10002E0002B358046009E4CC24815006285009021A
:10003E0002F22840030202EFC0E0EB4A7044B9809E
:10004E0006D0E0FB0202DEEF4E701CBD8008EBFF17
:10005E00EAFEE9FD80EBE98DF0A4FEE5F00200F783
:10006E00E9CDF9EAFEEBFFEF89F0A4FCE5F0CE89CD
:10007E00F0A42EFFE435F0CD89F0A42DFEE435F08A
:10008E008067EF4E7005BD80D780C3EF8BF0A4ACB8
:10009E00F0EE8BF0A42CFCE435F0F8EF8AF0A42CF3
:1000AE00E5F038FCE433CB8DF0A42CFCE5F03BF806
:1000BE00EE8AF0A42CFCE5F038F8E433CF89F0A4F6
:1000CE002CFCE5F038CF3400CE89F0A42FFFE5F0FC
:1000DE003EFEE433C98DF0A42EFEE5F039CD8AF054
:1000EE00A42FFFE5F03EFEE43DFD33D0E0FB5007CC
:1000FE000BBB000F0202F2EC2CFCEF33FFEE33FED3
:06010E00ED33FD0202CA00
:100114000202F2EC5D046005E8590470030202E88F
:100124001202B3580460F6EC4860F2EC7004FDFE71
:10013400FF22C860DB2481C85009C39860025006BE
:100144000202EF9850CAF582E9294B4A7005AB8246
:100154000202DE75F0007C1A7880C3EF9BEE9AED04
:1001640099400DC3EF9BFFEE9AFEED99FDE842F036
:10017400DC23ACF0D0E0FFD0E0FED0E0FDAB822089
:10018400E7101BEB60BAEC2CFCEF33FFEE33FEED13
:1001940033FD0202CAE803F830E705C0F075F00049
:1001A400EF2FFFEE33FEED33FD40B830E7C280AAF7
:1001B40074F8CC6480CCC86480C8F58204604FC3F2
:1001C400EB9FF5F0EA9E42F0E99D42F0E89C45F091
:1001D400603C501DE5825FFFE582D313CB5BCBF41B
:1001E4002B5582FB50280ABA002409B90020088044
:1001F4001DE5825BFBE582D313CF5FCFF4C3132FDE
:100204005582FF50090EBE00050DBD00010CC3EB65
:100214009FF5F0EA9E42F0E99D42F0E89C45F060CB
:0902240007CC4820E701B3EC22ED
:10022D00ED33EC33600A047003BD8004ECB2E7FCDF
:01023D00229E
:10023E0075F020800E75F010800575F0087D007E3B
:10024E00007F003392D530D50312045FEC3340109B
:10025E00EF33FFEE33FEED33FDEC33FCD5F0ED2244
:0E026E00E5F0247EA2D513CC92E7CDCEFF2280
:10027C00EDD2E7CD33EC3392D524814006E4FFFE7A
:10028C00FDFC22FCE4CFCECDCC24E0501174FF80D9
:10029C00EDC3CC13CCCD13CDCE13CECF13CF047076
:0702AC00F030D5DE02045F13
:1002B300E9D2E7C933E833F892D5EDD2E7CD33EC91
:0702C30033FC5002B2D5220A
:1002CA00EC30E7100FBF000C0EBE00080DBD000495
:1002DA000BEB6014A2D5EB13FCED92E7FD2274FF41
:1002EA00FCFDFEFF22E480F8A2D574FF13FC7D809A
:0302FA00E480EFAE
:030000000206C92C
:0C06C900787FE4F6D8FD7581240207104C
:1002FD00BB010CE58229F582E5833AF583E02250B6
:10030D0006E92582F8E622BBFE06E92582F8E222FF
:0D031D00E58229F582E5833AF583E4932219
:10032A00EF8DF0A4A8F0CF8CF0A428CE8DF0A42EE7
:02033A00FE22A1
:10033C00BC000BBE0029EF8DF084FFADF022E4CCA5
:10034C00F875F008EF2FFFEE33FEEC33FCEE9DEC6E
:10035C00984005FCEE9DFE0FD5F0E9E4CEFD22EDB4
:10036C00F8F5F0EE8420D21CFEADF075F008EF2FFE
:10037C00FFED33FD4007985006D5F0F222C398FDEF
:05038C000FD5F0EA228C
:1003910075F008758200EF2FFFEE33FECD33CDCC23
:1003A10033CCC58233C5829BED9AEC99E5829840A6
:1003B1000CF582EE9BFEED9AFDEC99FC0FD5F0D683
:1003C100E4CEFBE4CDFAE4CCF9A88222B800C1B9AD
:1003D1000059BA002DEC8BF084CFCECDFCE5F0CBEB
:1003E100F97818EF2FFFEE33FEED33FDEC33FCEB24
:1003F10033FB10D703994004EB99FB0FD8E5E4F9DF
:10040100FA227818EF2FFFEE33FEED33FDEC33FCCB
:10041100C933C910D7059BE99A4007EC9BFCE99ABF
:10042100F90FD8E0E4C9FAE4CCFB2275F010EF2F04
:10043100FFEE33FEED33FDCC33CCC833C810D70704
:100441009BEC9AE899400AED9BFDEC9AFCE899F83F
:0E0451000FD5F0DAE4CDFBE4CCFAE4C8F922D2
:0E045F00C3E49FFFE49EFEE49DFDE49CFC22AE
:1006D50002046DE493A3F8E493A34003F68001F2CA
:1006E50008DFF48029E493A3F85407240CC8C33326
:1006F500C4540F4420C8834004F456800146F6DFF5
:10070500E4800B0102040810204080900AD8E47EA2
:10071500019360BCA3FF543F30E509541FFEE493E9
:10072500A360010ECF54C025E060A840B8E493A3B0
:10073500FAE493A3F8E493A3C8C582C8CAC583CADB
:10074500F0A3C8C582C8CAC583CADFE9DEE780BE93
:010ADB00001A
:00000001FF
